{
  "transactions": [
    {
      "hash": "0x8489cbd66ad06f636d648f8c3af2cd59540fe000b57b95a00e0261c86d6e402c",
      "transactionType": "CALL",
      "contractName": null,
      "contractAddress": "0xf3743092b82e074265093fae373b0f4e0f5444e9",
      "function": "enroll(string,address,uint256)",
      "arguments": [
        "93260646",
        "0x3ACeFef486Ca88Cc44b68F029E57700bCFd531a4",
        "1000000"
      ],
      "transaction": {
        "from": "0x16175479886caeb759d62cb35c33ed1ca1b61354",
        "to": "0xf3743092b82e074265093fae373b0f4e0f5444e9",
        "gas": "0x3a47c",
        "value": "0x0",
        "input": "0xa145f36100000000000000000000000000000000000000000000000000000000000000600000000000000000000000003acefef486ca88cc44b68f029e57700bcfd531a400000000000000000000000000000000000000000000000000000000000f424000000000000000000000000000000000000000000000000000000000000000083933323630363436000000000000000000000000000000000000000000000000",
        "nonce": "0x42",
        "chainId": "0x79a"
      },
      "additionalContracts": [],
      "isFixedGasLimit": false
    }
  ],
  "receipts": [
    {
      "status": "0x1",
      "cumulativeGasUsed": "0x383e1",
      "logs": [
        {
          "address": "0xf3743092b82e074265093fae373b0f4e0f5444e9",
          "topics": [
            "0xfd0fc27a4143172df41dfa28796249d96741c4cc14f3e6c4a91dcb44ffbc18ed"
          ],
          "data": "0x00000000000000000000000000000000000000000000000000000000000000600000000000000000000000003acefef486ca88cc44b68f029e57700bcfd531a400000000000000000000000000000000000000000000000000000000000f424000000000000000000000000000000000000000000000000000000000000000083933323630363436000000000000000000000000000000000000000000000000",
          "blockHash": "0x0c9c34364a059256e99ea8e255e4affca426c8ce9e74801ca4e66cc338064ab5",
          "blockNumber": "0xb36112",
          "transactionHash": "0x8489cbd66ad06f636d648f8c3af2cd59540fe000b57b95a00e0261c86d6e402c",
          "transactionIndex": "0x2",
          "logIndex": "0x0",
          "removed": false
        }
      ],
      "logsBloom": "0x00000000000000000000000000000000000000000000000000000000000000000000000000000000000000000000000000000000000000000000000000000008800000000000000000000000000000000000000000000000000000000000000000000000000000000000000000000000000000000000000000000000100000000000000000000800000000000000000000000000000000000000000000000000000000000040000000000000000000000000000000000000000000000000000000000000000000000000000000000000000000000000000000001000000000000000000000000000000000000000000000000000000000000000000000000000",
      "type": "0x2",
      "transactionHash": "0x8489cbd66ad06f636d648f8c3af2cd59540fe000b57b95a00e0261c86d6e402c",
      "transactionIndex": "0x2",
      "blockHash": "0x0c9c34364a059256e99ea8e255e4affca426c8ce9e74801ca4e66cc338064ab5",
      "blockNumber": "0xb36112",
      "gasUsed": "0x27d99",
      "effectiveGasPrice": "0xfd",
      "from": "0x16175479886caeb759d62cb35c33ed1ca1b61354",
      "to": "0xf3743092b82e074265093fae373b0f4e0f5444e9",
      "contractAddress": null,
      "l1BaseFeeScalar": "0x2608",
      "l1BlobBaseFee": "0x1",
      "l1BlobBaseFeeScalar": "0x177fef",
      "l1Fee": "0xca629af19",
      "l1GasPrice": "0xc20174fa",
      "l1GasUsed": "0x6b2"
    }
  ],
  "libraries": [],
  "pending": [],
  "returns": {},
  "timestamp": 1746705925,
  "chain": 1946,
  "commit": "d6544bd"
}