{
  "transactions": [
    {
      "hash": "0x6e60770dd5f6d02330a3e68efaba50be3755025588e94581351fe866e4a62945",
      "transactionType": "CALL",
      "contractName": null,
      "contractAddress": "0xbb1cda2f1f874a4a837302184f3c0159b27c0b41",
      "function": "mint(address,uint256)",
      "arguments": [
        "0x16175479886CAeB759D62Cb35c33Ed1Ca1B61354",
        "100000000"
      ],
      "transaction": {
        "from": "0x16175479886caeb759d62cb35c33ed1ca1b61354",
        "to": "0xbb1cda2f1f874a4a837302184f3c0159b27c0b41",
        "gas": "0xbb26",
        "value": "0x0",
        "input": "0x40c10f1900000000000000000000000016175479886caeb759d62cb35c33ed1ca1b613540000000000000000000000000000000000000000000000000000000005f5e100",
        "nonce": "0x4d",
        "chainId": "0x79a"
      },
      "additionalContracts": [],
      "isFixedGasLimit": false
    },
    {
      "hash": "0xce0a3de470708f5b7fadc32a04f90ab122a90c0658778236b23e620bb0eccb67",
      "transactionType": "CALL",
      "contractName": null,
      "contractAddress": "0xbb1cda2f1f874a4a837302184f3c0159b27c0b41",
      "function": "transfer(address,uint256)",
      "arguments": [
        "0x6292f3546cB1A31b501794E32A1F07cbd3641c90",
        "100000000"
      ],
      "transaction": {
        "from": "0x16175479886caeb759d62cb35c33ed1ca1b61354",
        "to": "0xbb1cda2f1f874a4a837302184f3c0159b27c0b41",
        "gas": "0x11952",
        "value": "0x0",
        "input": "0xa9059cbb0000000000000000000000006292f3546cb1a31b501794e32a1f07cbd3641c900000000000000000000000000000000000000000000000000000000005f5e100",
        "nonce": "0x4e",
        "chainId": "0x79a"
      },
      "additionalContracts": [],
      "isFixedGasLimit": false
    }
  ],
  "receipts": [
    {
      "status": "0x1",
      "cumulativeGasUsed": "0x15c83",
      "logs": [
        {
          "address": "0xbb1cda2f1f874a4a837302184f3c0159b27c0b41",
          "topics": [
            "0xddf252ad1be2c89b69c2b068fc378daa952ba7f163c4a11628f55a4df523b3ef",
            "0x0000000000000000000000000000000000000000000000000000000000000000",
            "0x00000000000000000000000016175479886caeb759d62cb35c33ed1ca1b61354"
          ],
          "data": "0x0000000000000000000000000000000000000000000000000000000005f5e100",
          "blockHash": "0xb38292f9939196b9d921b021372c001379903ec8df9b17905d4f4afa982fea39",
          "blockNumber": "0xb364de",
          "transactionHash": "0x6e60770dd5f6d02330a3e68efaba50be3755025588e94581351fe866e4a62945",
          "transactionIndex": "0x1",
          "logIndex": "0x0",
          "removed": false
        }
      ],
      "logsBloom": "0x000000000000000000000000000000000000000000000000000000000000000000000000000000000000000000000000000000000000000000000000000000000000000000000000000000080000000100000000000000000000000000000000000000000a0000000000006000000800000000000000000000000010000000000000000400000000000000000000000000000000000000000000000000000000000000000000000000000000000000000000000000000000000000000000000000000002000000000000000000000000000000000000000000000000000020000000200000000000000000000000000000000000000000000000000000000000",
      "type": "0x2",
      "transactionHash": "0x6e60770dd5f6d02330a3e68efaba50be3755025588e94581351fe866e4a62945",
      "transactionIndex": "0x1",
      "blockHash": "0xb38292f9939196b9d921b021372c001379903ec8df9b17905d4f4afa982fea39",
      "blockNumber": "0xb364de",
      "gasUsed": "0x877f",
      "effectiveGasPrice": "0xfd",
      "from": "0x16175479886caeb759d62cb35c33ed1ca1b61354",
      "to": "0xbb1cda2f1f874a4a837302184f3c0159b27c0b41",
      "contractAddress": null,
      "l1BaseFeeScalar": "0x2608",
      "l1BlobBaseFee": "0x1",
      "l1BlobBaseFeeScalar": "0x177fef",
      "l1Fee": "0xcbae511d1",
      "l1GasPrice": "0xd134334d",
      "l1GasUsed": "0x640"
    },
    {
      "status": "0x1",
      "cumulativeGasUsed": "0x22830",
      "logs": [
        {
          "address": "0xbb1cda2f1f874a4a837302184f3c0159b27c0b41",
          "topics": [
            "0xddf252ad1be2c89b69c2b068fc378daa952ba7f163c4a11628f55a4df523b3ef",
            "0x00000000000000000000000016175479886caeb759d62cb35c33ed1ca1b61354",
            "0x0000000000000000000000006292f3546cb1a31b501794e32a1f07cbd3641c90"
          ],
          "data": "0x0000000000000000000000000000000000000000000000000000000005f5e100",
          "blockHash": "0xb38292f9939196b9d921b021372c001379903ec8df9b17905d4f4afa982fea39",
          "blockNumber": "0xb364de",
          "transactionHash": "0xce0a3de470708f5b7fadc32a04f90ab122a90c0658778236b23e620bb0eccb67",
          "transactionIndex": "0x2",
          "logIndex": "0x1",
          "removed": false
        }
      ],
      "logsBloom": "0x00000000000000000000000000000000000000000000000000000000000000000000000000000000000000000000000000000000000000000000000000000800000000000000000000000008000000010000000000000000000000000000000000000000080000000000006000000000000000000000000000000010000000080000000400000000000000000000000000000000000000000000000000000000000000000000000000000000000000000000000000000000000000000000000000000002000000000000000000000000000000000000000000000000000000000000200000000000000000000000000000000000000000000000000010000000",
      "type": "0x2",
      "transactionHash": "0xce0a3de470708f5b7fadc32a04f90ab122a90c0658778236b23e620bb0eccb67",
      "transactionIndex": "0x2",
      "blockHash": "0xb38292f9939196b9d921b021372c001379903ec8df9b17905d4f4afa982fea39",
      "blockNumber": "0xb364de",
      "gasUsed": "0xcbad",
      "effectiveGasPrice": "0xfd",
      "from": "0x16175479886caeb759d62cb35c33ed1ca1b61354",
      "to": "0xbb1cda2f1f874a4a837302184f3c0159b27c0b41",
      "contractAddress": null,
      "l1BaseFeeScalar": "0x2608",
      "l1BlobBaseFee": "0x1",
      "l1BlobBaseFeeScalar": "0x177fef",
      "l1Fee": "0xcbae511d1",
      "l1GasPrice": "0xd134334d",
      "l1GasUsed": "0x640"
    }
  ],
  "libraries": [],
  "pending": [],
  "returns": {},
  "timestamp": 1746707868,
  "chain": 1946,
  "commit": "d6544bd"
}