{
  "transactions": [
    {
      "hash": "0xec378e292c138bc3e7125f03d2ab60126f9e6f254386d0f3cef8f10377086a4c",
      "transactionType": "CALL",
      "contractName": null,
      "contractAddress": "0x6292f3546cb1a31b501794e32a1f07cbd3641c90",
      "function": "enroll(string,address,uint256)",
      "arguments": [
        "93260646",
        "0x3ACeFef486Ca88Cc44b68F029E57700bCFd531a4",
        "1000000"
      ],
      "transaction": {
        "from": "0x16175479886caeb759d62cb35c33ed1ca1b61354",
        "to": "0x6292f3546cb1a31b501794e32a1f07cbd3641c90",
        "gas": "0x3a47c",
        "value": "0x0",
        "input": "0xa145f36100000000000000000000000000000000000000000000000000000000000000600000000000000000000000003acefef486ca88cc44b68f029e57700bcfd531a400000000000000000000000000000000000000000000000000000000000f424000000000000000000000000000000000000000000000000000000000000000083933323630363436000000000000000000000000000000000000000000000000",
        "nonce": "0x4a",
        "chainId": "0x79a"
      },
      "additionalContracts": [],
      "isFixedGasLimit": false
    }
  ],
  "receipts": [
    {
      "status": "0x1",
      "cumulativeGasUsed": "0x331cd",
      "logs": [
        {
          "address": "0x6292f3546cb1a31b501794e32a1f07cbd3641c90",
          "topics": [
            "0xfd0fc27a4143172df41dfa28796249d96741c4cc14f3e6c4a91dcb44ffbc18ed"
          ],
          "data": "0x00000000000000000000000000000000000000000000000000000000000000600000000000000000000000003acefef486ca88cc44b68f029e57700bcfd531a400000000000000000000000000000000000000000000000000000000000f424000000000000000000000000000000000000000000000000000000000000000083933323630363436000000000000000000000000000000000000000000000000",
          "blockHash": "0x81da792748f5425149a5c48fbd2779376c3b5fa93db00d374dfdb3eaee6c204c",
          "blockNumber": "0xb363ff",
          "transactionHash": "0xec378e292c138bc3e7125f03d2ab60126f9e6f254386d0f3cef8f10377086a4c",
          "transactionIndex": "0x1",
          "logIndex": "0x0",
          "removed": false
        }
      ],
      "logsBloom": "0x00000000800000000000000000000000000000000000000000000000000000000000008000000000000000000000000000000000000000000000000000000000800000000000000000000000000000000000000000000000000000000000000000000000000000000000000000000000000000000080000000000000100000000000000000000000000000000000000000000000000000000000000000000000000000000040000000000000000000000000000000000000000000000000000000000000000000000000000000000000000000000000000000000000000000000000000000000000000000000000000000000000000000000000000000000000",
      "type": "0x2",
      "transactionHash": "0xec378e292c138bc3e7125f03d2ab60126f9e6f254386d0f3cef8f10377086a4c",
      "transactionIndex": "0x1",
      "blockHash": "0x81da792748f5425149a5c48fbd2779376c3b5fa93db00d374dfdb3eaee6c204c",
      "blockNumber": "0xb363ff",
      "gasUsed": "0x27d99",
      "effectiveGasPrice": "0xfd",
      "from": "0x16175479886caeb759d62cb35c33ed1ca1b61354",
      "to": "0x6292f3546cb1a31b501794e32a1f07cbd3641c90",
      "contractAddress": null,
      "l1BaseFeeScalar": "0x2608",
      "l1BlobBaseFee": "0x1",
      "l1BlobBaseFeeScalar": "0x177fef",
      "l1Fee": "0xb84cd3e52",
      "l1GasPrice": "0xb0ab5e7d",
      "l1GasUsed": "0x6b2"
    }
  ],
  "libraries": [],
  "pending": [],
  "returns": {},
  "timestamp": 1746707422,
  "chain": 1946,
  "commit": "d6544bd"
}