{
  "transactions": [
    {
      "hash": "0x211ec4bd4b178590f7e4e98b8a4c7c68f2aefced234c500784ebea492ddba51e",
      "transactionType": "CALL",
      "contractName": null,
      "contractAddress": "0xf3743092b82e074265093fae373b0f4e0f5444e9",
      "function": "enroll(string,address,uint256)",
      "arguments": [
        "93260646",
        "0x3ACeFef486Ca88Cc44b68F029E57700bCFd531a4",
        "1000000"
      ],
      "transaction": {
        "from": "0x16175479886caeb759d62cb35c33ed1ca1b61354",
        "to": "0xf3743092b82e074265093fae373b0f4e0f5444e9",
        "gas": "0x3a47c",
        "value": "0x0",
        "input": "0xa145f36100000000000000000000000000000000000000000000000000000000000000600000000000000000000000003acefef486ca88cc44b68f029e57700bcfd531a400000000000000000000000000000000000000000000000000000000000f424000000000000000000000000000000000000000000000000000000000000000083933323630363436000000000000000000000000000000000000000000000000",
        "nonce": "0x3b",
        "chainId": "0x79a"
      },
      "additionalContracts": [],
      "isFixedGasLimit": false
    }
  ],
  "receipts": [
    {
      "status": "0x1",
      "cumulativeGasUsed": "0x3a499",
      "logs": [
        {
          "address": "0xf3743092b82e074265093fae373b0f4e0f5444e9",
          "topics": [
            "0xfd0fc27a4143172df41dfa28796249d96741c4cc14f3e6c4a91dcb44ffbc18ed"
          ],
          "data": "0x00000000000000000000000000000000000000000000000000000000000000600000000000000000000000003acefef486ca88cc44b68f029e57700bcfd531a400000000000000000000000000000000000000000000000000000000000f424000000000000000000000000000000000000000000000000000000000000000083933323630363436000000000000000000000000000000000000000000000000",
          "blockHash": "0xa84b0d9879c8563d051bcd379e0a34a2f912d3a9fec48d9a493fd720b9838eeb",
          "blockNumber": "0xb35f67",
          "transactionHash": "0x211ec4bd4b178590f7e4e98b8a4c7c68f2aefced234c500784ebea492ddba51e",
          "transactionIndex": "0x2",
          "logIndex": "0x0",
          "removed": false
        }
      ],
      "logsBloom": "0x00000000000000000000000000000000000000000000000000000000000000000000000000000000000000000000000000000000000000000000000000000008800000000000000000000000000000000000000000000000000000000000000000000000000000000000000000000000000000000000000000000000100000000000000000000800000000000000000000000000000000000000000000000000000000000040000000000000000000000000000000000000000000000000000000000000000000000000000000000000000000000000000000001000000000000000000000000000000000000000000000000000000000000000000000000000",
      "type": "0x2",
      "transactionHash": "0x211ec4bd4b178590f7e4e98b8a4c7c68f2aefced234c500784ebea492ddba51e",
      "transactionIndex": "0x2",
      "blockHash": "0xa84b0d9879c8563d051bcd379e0a34a2f912d3a9fec48d9a493fd720b9838eeb",
      "blockNumber": "0xb35f67",
      "gasUsed": "0x27d99",
      "effectiveGasPrice": "0xfd",
      "from": "0x16175479886caeb759d62cb35c33ed1ca1b61354",
      "to": "0xf3743092b82e074265093fae373b0f4e0f5444e9",
      "contractAddress": null,
      "l1BaseFeeScalar": "0x2608",
      "l1BlobBaseFee": "0x1",
      "l1BlobBaseFeeScalar": "0x177fef",
      "l1Fee": "0xb8e1d6b3f",
      "l1GasPrice": "0xb13a35e1",
      "l1GasUsed": "0x6b2"
    }
  ],
  "libraries": [],
  "pending": [],
  "returns": {},
  "timestamp": 1746705070,
  "chain": 1946,
  "commit": "9fb891e"
}