{
  "transactions": [
    {
      "hash": "0xadc3a1b3be457fe81f87ef755e8fafcc5551b15ef6fa7de7a2434b5d48378714",
      "transactionType": "CALL",
      "contractName": null,
      "contractAddress": "0x3ff2bcac5963e79af91d59fc45c6b050f4c9b37e",
      "function": "enroll(uint256,uint64,uint256)",
      "arguments": [
        "333330000000000001",
        "100000",
        "5000000"
      ],
      "transaction": {
        "from": "0x16175479886caeb759d62cb35c33ed1ca1b61354",
        "to": "0x3ff2bcac5963e79af91d59fc45c6b050f4c9b37e",
        "gas": "0x18046",
        "value": "0x0",
        "input": "0x8f36215f00000000000000000000000000000000000000000000000004a039de72fb200100000000000000000000000000000000000000000000000000000000000186a000000000000000000000000000000000000000000000000000000000004c4b40",
        "nonce": "0x7",
        "chainId": "0x79a"
      },
      "additionalContracts": [],
      "isFixedGasLimit": false
    }
  ],
  "receipts": [
    {
      "status": "0x1",
      "cumulativeGasUsed": "0x1ca82",
      "logs": [
        {
          "address": "0x3ff2bcac5963e79af91d59fc45c6b050f4c9b37e",
          "topics": [
            "0x79ba95c0716fcd07d9db02fb6c594aaf65666e9201dad5a2131aa73294d69ecc",
            "0x00000000000000000000000000000000000000000000000004a039de72fb2001"
          ],
          "data": "0x00000000000000000000000000000000000000000000000000000000000186a000000000000000000000000000000000000000000000000000000000004c4b40",
          "blockHash": "0x9e5d915b3996e0b3e89d0a806cb4a6f740f743cc8ffefa249f640990d58b17a4",
          "blockNumber": "0xb21ea1",
          "transactionHash": "0xadc3a1b3be457fe81f87ef755e8fafcc5551b15ef6fa7de7a2434b5d48378714",
          "transactionIndex": "0x1",
          "logIndex": "0x0",
          "removed": false
        }
      ],
      "logsBloom": "0x00000000000000000000000000000000000000000000000000000000000000000000000000000000000000000000000000000000000000000000000000000000800000000400000000000000000000000000000000000008000000000000000000000000000000000000000000000000000000000000000002000000000000000000000000000008000000000000000000000000000000000000000000000000200000000000000000000040000000000000000000000000000000000000001000010000000000000000000000000000000000000000000000000000000000000000000000000000000000000000000000000000000000000000000000000000",
      "type": "0x2",
      "transactionHash": "0xadc3a1b3be457fe81f87ef755e8fafcc5551b15ef6fa7de7a2434b5d48378714",
      "transactionIndex": "0x1",
      "blockHash": "0x9e5d915b3996e0b3e89d0a806cb4a6f740f743cc8ffefa249f640990d58b17a4",
      "blockNumber": "0xb21ea1",
      "gasUsed": "0x11636",
      "effectiveGasPrice": "0xfd",
      "from": "0x16175479886caeb759d62cb35c33ed1ca1b61354",
      "to": "0x3ff2bcac5963e79af91d59fc45c6b050f4c9b37e",
      "contractAddress": null,
      "l1BaseFeeScalar": "0x2608",
      "l1BlobBaseFee": "0x1",
      "l1BlobBaseFeeScalar": "0x177fef",
      "l1Fee": "0x898f4add20",
      "l1GasPrice": "0x8d4a2f712",
      "l1GasUsed": "0x640"
    }
  ],
  "libraries": [],
  "pending": [],
  "returns": {},
  "timestamp": 1746540834,
  "chain": 1946,
  "commit": "89237ec"
}