{
  "transactions": [
    {
      "hash": "0x7493abaa9ea8d173def1b6aac3cb976c21c85cbc59d51c12c8786c41f319431a",
      "transactionType": "CALL",
      "contractName": null,
      "contractAddress": "0x6292f3546cb1a31b501794e32a1f07cbd3641c90",
      "function": "enroll(string,address,uint256)",
      "arguments": [
        "93260646",
        "0x3ACeFef486Ca88Cc44b68F029E57700bCFd531a4",
        "1000000"
      ],
      "transaction": {
        "from": "0x16175479886caeb759d62cb35c33ed1ca1b61354",
        "to": "0x6292f3546cb1a31b501794e32a1f07cbd3641c90",
        "gas": "0x3a47c",
        "value": "0x0",
        "input": "0xa145f36100000000000000000000000000000000000000000000000000000000000000600000000000000000000000003acefef486ca88cc44b68f029e57700bcfd531a400000000000000000000000000000000000000000000000000000000000f424000000000000000000000000000000000000000000000000000000000000000083933323630363436000000000000000000000000000000000000000000000000",
        "nonce": "0x50",
        "chainId": "0x79a"
      },
      "additionalContracts": [],
      "isFixedGasLimit": false
    }
  ],
  "receipts": [
    {
      "status": "0x1",
      "cumulativeGasUsed": "0x331d9",
      "logs": [
        {
          "address": "0x6292f3546cb1a31b501794e32a1f07cbd3641c90",
          "topics": [
            "0xfd0fc27a4143172df41dfa28796249d96741c4cc14f3e6c4a91dcb44ffbc18ed"
          ],
          "data": "0x00000000000000000000000000000000000000000000000000000000000000600000000000000000000000003acefef486ca88cc44b68f029e57700bcfd531a400000000000000000000000000000000000000000000000000000000000f424000000000000000000000000000000000000000000000000000000000000000083933323630363436000000000000000000000000000000000000000000000000",
          "blockHash": "0x245c0b1b2ddd5fa958f1a20d8cb3c401d1e1948f98f69686c91c98bd3056eb7f",
          "blockNumber": "0xb36529",
          "transactionHash": "0x7493abaa9ea8d173def1b6aac3cb976c21c85cbc59d51c12c8786c41f319431a",
          "transactionIndex": "0x1",
          "logIndex": "0x0",
          "removed": false
        }
      ],
      "logsBloom": "0x00000000800000000000000000000000000000000000000000000000000000000000008000000000000000000000000000000000000000000000000000000000800000000000000000000000000000000000000000000000000000000000000000000000000000000000000000000000000000000080000000000000100000000000000000000000000000000000000000000000000000000000000000000000000000000040000000000000000000000000000000000000000000000000000000000000000000000000000000000000000000000000000000000000000000000000000000000000000000000000000000000000000000000000000000000000",
      "type": "0x2",
      "transactionHash": "0x7493abaa9ea8d173def1b6aac3cb976c21c85cbc59d51c12c8786c41f319431a",
      "transactionIndex": "0x1",
      "blockHash": "0x245c0b1b2ddd5fa958f1a20d8cb3c401d1e1948f98f69686c91c98bd3056eb7f",
      "blockNumber": "0xb36529",
      "gasUsed": "0x27d99",
      "effectiveGasPrice": "0xf433c",
      "from": "0x16175479886caeb759d62cb35c33ed1ca1b61354",
      "to": "0x6292f3546cb1a31b501794e32a1f07cbd3641c90",
      "contractAddress": null,
      "l1BaseFeeScalar": "0x2608",
      "l1BlobBaseFee": "0x1",
      "l1BlobBaseFeeScalar": "0x177fef",
      "l1Fee": "0xfda57a101",
      "l1GasPrice": "0xebc813d4",
      "l1GasUsed": "0x6e7"
    }
  ],
  "libraries": [],
  "pending": [],
  "returns": {},
  "timestamp": 1746708019,
  "chain": 1946,
  "commit": "d6544bd"
}