{
  "transactions": [
    {
      "hash": "0x1c4b8b8d0da80ccfd0398624163fd309390ca56f766c607ac65d59e6bbf7cb80",
      "transactionType": "CALL",
      "contractName": null,
      "contractAddress": "0xf3743092b82e074265093fae373b0f4e0f5444e9",
      "function": "enroll(string,address,uint256)",
      "arguments": [
        "93260646",
        "0x3ACeFef486Ca88Cc44b68F029E57700bCFd531a4",
        "1"
      ],
      "transaction": {
        "from": "0x16175479886caeb759d62cb35c33ed1ca1b61354",
        "to": "0xf3743092b82e074265093fae373b0f4e0f5444e9",
        "gas": "0x2e0f7",
        "value": "0x0",
        "input": "0xa145f36100000000000000000000000000000000000000000000000000000000000000600000000000000000000000003acefef486ca88cc44b68f029e57700bcfd531a4000000000000000000000000000000000000000000000000000000000000000100000000000000000000000000000000000000000000000000000000000000083933323630363436000000000000000000000000000000000000000000000000",
        "nonce": "0x36",
        "chainId": "0x79a"
      },
      "additionalContracts": [],
      "isFixedGasLimit": false
    }
  ],
  "receipts": [
    {
      "status": "0x1",
      "cumulativeGasUsed": "0x2ac1d",
      "logs": [
        {
          "address": "0xf3743092b82e074265093fae373b0f4e0f5444e9",
          "topics": [
            "0xfd0fc27a4143172df41dfa28796249d96741c4cc14f3e6c4a91dcb44ffbc18ed"
          ],
          "data": "0x00000000000000000000000000000000000000000000000000000000000000600000000000000000000000003acefef486ca88cc44b68f029e57700bcfd531a4000000000000000000000000000000000000000000000000000000000000000100000000000000000000000000000000000000000000000000000000000000083933323630363436000000000000000000000000000000000000000000000000",
          "blockHash": "0x29311f33887672224b5560e75fe7c17225570989e777653146b0407cd59355ca",
          "blockNumber": "0xb35d55",
          "transactionHash": "0x1c4b8b8d0da80ccfd0398624163fd309390ca56f766c607ac65d59e6bbf7cb80",
          "transactionIndex": "0x1",
          "logIndex": "0x0",
          "removed": false
        }
      ],
      "logsBloom": "0x00000000000000000000000000000000000000000000000000000000000000000000000000000000000000000000000000000000000000000000000000000008800000000000000000000000000000000000000000000000000000000000000000000000000000000000000000000000000000000000000000000000100000000000000000000800000000000000000000000000000000000000000000000000000000000040000000000000000000000000000000000000000000000000000000000000000000000000000000000000000000000000000000001000000000000000000000000000000000000000000000000000000000000000000000000000",
      "type": "0x2",
      "transactionHash": "0x1c4b8b8d0da80ccfd0398624163fd309390ca56f766c607ac65d59e6bbf7cb80",
      "transactionIndex": "0x1",
      "blockHash": "0x29311f33887672224b5560e75fe7c17225570989e777653146b0407cd59355ca",
      "blockNumber": "0xb35d55",
      "gasUsed": "0x1f7e9",
      "effectiveGasPrice": "0xfd",
      "from": "0x16175479886caeb759d62cb35c33ed1ca1b61354",
      "to": "0xf3743092b82e074265093fae373b0f4e0f5444e9",
      "contractAddress": null,
      "l1BaseFeeScalar": "0x2608",
      "l1BlobBaseFee": "0x1",
      "l1BlobBaseFeeScalar": "0x177fef",
      "l1Fee": "0xf69cbf50a",
      "l1GasPrice": "0xf026bef7",
      "l1GasUsed": "0x697"
    }
  ],
  "libraries": [],
  "pending": [],
  "returns": {},
  "timestamp": 1746704011,
  "chain": 1946,
  "commit": "9fb891e"
}