{
  "transactions": [
    {
      "hash": "0xfd095d381980000236c36e77423c955bab0a541ec423a63c5d3581f057ab4152",
      "transactionType": "CALL",
      "contractName": null,
      "contractAddress": "0x3ff2bcac5963e79af91d59fc45c6b050f4c9b37e",
      "function": "claim(uint256,address,uint256,uint8,bytes32,bytes32)",
      "arguments": [
        "333330000000000001",
        "0x16175479886CAeB759D62Cb35c33Ed1Ca1B61354",
        "5000000",
        "28",
        "0xcae71597cb962787a5e69732d81493b4f58cb29b9a9d37d57bc99d6e9568079a",
        "0x33595a3124c3b0780d12dcc05b297a3ec40d11a964abe31238f7c4203f6b815f"
      ],
      "transaction": {
        "from": "0x16175479886caeb759d62cb35c33ed1ca1b61354",
        "to": "0x3ff2bcac5963e79af91d59fc45c6b050f4c9b37e",
        "gas": "0x21a58",
        "value": "0x0",
        "input": "0xd2b9c64500000000000000000000000000000000000000000000000004a039de72fb200100000000000000000000000016175479886caeb759d62cb35c33ed1ca1b6135400000000000000000000000000000000000000000000000000000000004c4b40000000000000000000000000000000000000000000000000000000000000001ccae71597cb962787a5e69732d81493b4f58cb29b9a9d37d57bc99d6e9568079a33595a3124c3b0780d12dcc05b297a3ec40d11a964abe31238f7c4203f6b815f",
        "nonce": "0x8",
        "chainId": "0x79a"
      },
      "additionalContracts": [],
      "isFixedGasLimit": false
    }
  ],
  "receipts": [
    {
      "status": "0x1",
      "cumulativeGasUsed": "0x22466",
      "logs": [
        {
          "address": "0x3ff2bcac5963e79af91d59fc45c6b050f4c9b37e",
          "topics": [
            "0x14186b8ac9c91f14b0f16f9e886356157442bb899be26513dfe1d4d5929a5bac"
          ],
          "data": "0x000000000000000000000000000000000000000000000000000000000000004000000000000000000000000016175479886caeb759d62cb35c33ed1ca1b6135400000000000000000000000000000000000000000000000000000000000000105265636f7665726564207369676e657200000000000000000000000000000000",
          "blockHash": "0xd85be484ad47808634ae16f90c08ff4870f960057c93697c94bd1397ec488738",
          "blockNumber": "0xb21fab",
          "transactionHash": "0xfd095d381980000236c36e77423c955bab0a541ec423a63c5d3581f057ab4152",
          "transactionIndex": "0x1",
          "logIndex": "0x0",
          "removed": false
        },
        {
          "address": "0x3ff2bcac5963e79af91d59fc45c6b050f4c9b37e",
          "topics": [
            "0x14186b8ac9c91f14b0f16f9e886356157442bb899be26513dfe1d4d5929a5bac"
          ],
          "data": "0x000000000000000000000000000000000000000000000000000000000000004000000000000000000000000016175479886caeb759d62cb35c33ed1ca1b61354000000000000000000000000000000000000000000000000000000000000000f4578706563746564206e6f746172790000000000000000000000000000000000",
          "blockHash": "0xd85be484ad47808634ae16f90c08ff4870f960057c93697c94bd1397ec488738",
          "blockNumber": "0xb21fab",
          "transactionHash": "0xfd095d381980000236c36e77423c955bab0a541ec423a63c5d3581f057ab4152",
          "transactionIndex": "0x1",
          "logIndex": "0x1",
          "removed": false
        },
        {
          "address": "0x3ff2bcac5963e79af91d59fc45c6b050f4c9b37e",
          "topics": [
            "0x4ec90e965519d92681267467f775ada5bd214aa92c0dc93d90a5e880ce9ed026",
            "0x00000000000000000000000000000000000000000000000004a039de72fb2001",
            "0x00000000000000000000000016175479886caeb759d62cb35c33ed1ca1b61354"
          ],
          "data": "0x00000000000000000000000000000000000000000000000000000000004c4b40",
          "blockHash": "0xd85be484ad47808634ae16f90c08ff4870f960057c93697c94bd1397ec488738",
          "blockNumber": "0xb21fab",
          "transactionHash": "0xfd095d381980000236c36e77423c955bab0a541ec423a63c5d3581f057ab4152",
          "transactionIndex": "0x1",
          "logIndex": "0x2",
          "removed": false
        }
      ],
      "logsBloom": "0x00000000000000000000008000000000000000000000000000000000000000000000000000000000000000000000000008000080000000000000000000000000000000000400000000000000000000010000000000000008000000000000000000000000000000000000006000000000000008000000000000000000000000000000000000000008000000000000000000000000000000000000000000000000200000000000000000040040000000000000000000000000000000000000000000010000000000000000000000000000000000000000000000000000000000000000000000000000000000000000000000000000000020000000000000000000",
      "type": "0x2",
      "transactionHash": "0xfd095d381980000236c36e77423c955bab0a541ec423a63c5d3581f057ab4152",
      "transactionIndex": "0x1",
      "blockHash": "0xd85be484ad47808634ae16f90c08ff4870f960057c93697c94bd1397ec488738",
      "blockNumber": "0xb21fab",
      "gasUsed": "0x1701a",
      "effectiveGasPrice": "0xfd",
      "from": "0x16175479886caeb759d62cb35c33ed1ca1b61354",
      "to": "0x3ff2bcac5963e79af91d59fc45c6b050f4c9b37e",
      "contractAddress": null,
      "l1BaseFeeScalar": "0x2608",
      "l1BlobBaseFee": "0x1",
      "l1BlobBaseFeeScalar": "0x177fef",
      "l1Fee": "0x9117bba4ee",
      "l1GasPrice": "0x5fbc5cab7",
      "l1GasUsed": "0x9ba"
    }
  ],
  "libraries": [],
  "pending": [],
  "returns": {},
  "timestamp": 1746541366,
  "chain": 1946,
  "commit": "89237ec"
}